{
  "_format": "hh-sol-artifact-1",
  "contractName": "StoreWaterFlowData_0107",
  "sourceName": "contracts/contractStWrFwDa.sol",
  "abi": [
    {
      "inputs": [
        {
          "internalType": "uint256",
          "name": "",
          "type": "uint256"
        }
      ],
      "name": "data",
      "outputs": [
        {
          "internalType": "string",
          "name": "deviceId",
          "type": "string"
        },
        {
          "internalType": "uint256",
          "name": "value",
          "type": "uint256"
        },
        {
          "internalType": "uint256",
          "name": "timestamp",
          "type": "uint256"
        },
        {
          "internalType": "string",
          "name": "signature",
          "type": "string"
        }
      ],
      "stateMutability": "view",
      "type": "function"
    },
    {
      "inputs": [],
      "name": "dataCount",
      "outputs": [
        {
          "internalType": "uint256",
          "name": "",
          "type": "uint256"
        }
      ],
      "stateMutability": "view",
      "type": "function"
    },
    {
      "inputs": [
        {
          "internalType": "string",
          "name": "deviceId",
          "type": "string"
        },
        {
          "internalType": "uint256",
          "name": "value",
          "type": "uint256"
        },
        {
          "internalType": "uint256",
          "name": "timestamp",
          "type": "uint256"
        },
        {
          "internalType": "string",
          "name": "signature",
          "type": "string"
        }
      ],
      "name": "storeData",
      "outputs": [],
      "stateMutability": "nonpayable",
      "type": "function"
    }
  ],
  "bytecode": "0x6080604052348015600f57600080fd5b506109728061001f6000396000f3fe608060405234801561001057600080fd5b50600436106100415760003560e01c80635da40c47146100465780638948098014610064578063f0ba844014610080575b600080fd5b61004e6100b3565b60405161005b91906102a8565b60405180910390f35b61007e60048036038101906100799190610449565b6100b9565b005b61009a600480360381019061009591906104e8565b61014f565b6040516100aa9493929190610594565b60405180910390f35b60015481565b6040518060800160405280858152602001848152602001838152602001828152506000806001548152602001908152602001600020600082015181600001908161010391906107f3565b506020820151816001015560408201518160020155606082015181600301908161012d91906107f3565b5090505060016000815480929190610144906108f4565b919050555050505050565b600060205280600052604060002060009150905080600001805461017290610616565b80601f016020809104026020016040519081016040528092919081815260200182805461019e90610616565b80156101eb5780601f106101c0576101008083540402835291602001916101eb565b820191906000526020600020905b8154815290600101906020018083116101ce57829003601f168201915b50505050509080600101549080600201549080600301805461020c90610616565b80601f016020809104026020016040519081016040528092919081815260200182805461023890610616565b80156102855780601f1061025a57610100808354040283529160200191610285565b820191906000526020600020905b81548152906001019060200180831161026857829003601f168201915b5050505050905084565b6000819050919050565b6102a28161028f565b82525050565b60006020820190506102bd6000830184610299565b92915050565b6000604051905090565b600080fd5b600080fd5b600080fd5b600080fd5b6000601f19601f8301169050919050565b7f4e487b7100000000000000000000000000000000000000000000000000000000600052604160045260246000fd5b61032a826102e1565b810181811067ffffffffffffffff82111715610349576103486102f2565b5b80604052505050565b600061035c6102c3565b90506103688282610321565b919050565b600067ffffffffffffffff821115610388576103876102f2565b5b610391826102e1565b9050602081019050919050565b82818337600083830152505050565b60006103c06103bb8461036d565b610352565b9050828152602081018484840111156103dc576103db6102dc565b5b6103e784828561039e565b509392505050565b600082601f830112610404576104036102d7565b5b81356104148482602086016103ad565b91505092915050565b6104268161028f565b811461043157600080fd5b50565b6000813590506104438161041d565b92915050565b60008060008060808587031215610463576104626102cd565b5b600085013567ffffffffffffffff811115610481576104806102d2565b5b61048d878288016103ef565b945050602061049e87828801610434565b93505060406104af87828801610434565b925050606085013567ffffffffffffffff8111156104d0576104cf6102d2565b5b6104dc878288016103ef565b91505092959194509250565b6000602082840312156104fe576104fd6102cd565b5b600061050c84828501610434565b91505092915050565b600081519050919050565b600082825260208201905092915050565b60005b8381101561054f578082015181840152602081019050610534565b60008484015250505050565b600061056682610515565b6105708185610520565b9350610580818560208601610531565b610589816102e1565b840191505092915050565b600060808201905081810360008301526105ae818761055b565b90506105bd6020830186610299565b6105ca6040830185610299565b81810360608301526105dc818461055b565b905095945050505050565b7f4e487b7100000000000000000000000000000000000000000000000000000000600052602260045260246000fd5b6000600282049050600182168061062e57607f821691505b602082108103610641576106406105e7565b5b50919050565b60008190508160005260206000209050919050565b60006020601f8301049050919050565b600082821b905092915050565b6000600883026106a97fffffffffffffffffffffffffffffffffffffffffffffffffffffffffffffffff8261066c565b6106b3868361066c565b95508019841693508086168417925050509392505050565b6000819050919050565b60006106f06106eb6106e68461028f565b6106cb565b61028f565b9050919050565b6000819050919050565b61070a836106d5565b61071e610716826106f7565b848454610679565b825550505050565b600090565b610733610726565b61073e818484610701565b505050565b5b818110156107625761075760008261072b565b600181019050610744565b5050565b601f8211156107a75761077881610647565b6107818461065c565b81016020851015610790578190505b6107a461079c8561065c565b830182610743565b50505b505050565b600082821c905092915050565b60006107ca600019846008026107ac565b1980831691505092915050565b60006107e383836107b9565b9150826002028217905092915050565b6107fc82610515565b67ffffffffffffffff811115610815576108146102f2565b5b61081f8254610616565b61082a828285610766565b600060209050601f83116001811461085d576000841561084b578287015190505b61085585826107d7565b8655506108bd565b601f19841661086b86610647565b60005b828110156108935784890151825560018201915060208501945060208101905061086e565b868310156108b057848901516108ac601f8916826107b9565b8355505b6001600288020188555050505b505050505050565b7f4e487b7100000000000000000000000000000000000000000000000000000000600052601160045260246000fd5b60006108ff8261028f565b91507fffffffffffffffffffffffffffffffffffffffffffffffffffffffffffffffff8203610931576109306108c5565b5b60018201905091905056fea26469706673582212207960023ebd3a3ac8a2aab58144d9373207aff40dcf7a6c590a2af67ac291b95f64736f6c634300081c0033",
  "linkReferences": {},
  "deployedLinkReferences": {}
}